{
  "transactions": [
    {
      "hash": "0x5ebd88f9624e4af22dac7529553673966a4a4c7b45b41366daf2f9a7585d3c78",
      "transactionType": "CALL",
      "contractName": "LinkToken",
      "contractAddress": "0x779877A7B0D9E8603169DdbD7836e478b4624789",
      "function": "transferAndCall(address,uint256,bytes)",
      "arguments": [
        "0x8103B0A8A00be2DDC778e6e7eaa21791Cd364625",
        "3000000000000000000",
        "0x0000000000000000000000000000000000000000000000000000000000001f36"
      ],
      "transaction": {
        "type": "0x02",
        "from": "0xf65b7f3048533fd21046637d49202262bd1c447e",
        "to": "0x779877a7b0d9e8603169ddbd7836e478b4624789",
        "gas": "0x13fbe",
        "value": "0x0",
        "data": "0x4000aea00000000000000000000000008103b0a8a00be2ddc778e6e7eaa21791cd36462500000000000000000000000000000000000000000000000029a2241af62c0000000000000000000000000000000000000000000000000000000000000000006000000000000000000000000000000000000000000000000000000000000000200000000000000000000000000000000000000000000000000000000000001f36",
        "nonce": "0x2c",
        "accessList": []
      },
      "additionalContracts": [],
      "isFixedGasLimit": false
    }
  ],
  "receipts": [
    {
      "transactionHash": "0x5ebd88f9624e4af22dac7529553673966a4a4c7b45b41366daf2f9a7585d3c78",
      "transactionIndex": "0xf",
      "blockHash": "0x31c9a87d7a5d3406b97771d885c5d81c34be482033c1b1ad603a5f12199143d3",
      "blockNumber": "0x4b4aa8",
      "from": "0xf65b7F3048533FD21046637D49202262Bd1C447E",
      "to": "0x779877A7B0D9E8603169DdbD7836e478b4624789",
      "cumulativeGasUsed": "0x5f5269",
      "gasUsed": "0xe77e",
      "contractAddress": null,
      "logs": [
        {
          "address": "0x779877A7B0D9E8603169DdbD7836e478b4624789",
          "topics": [
            "0xddf252ad1be2c89b69c2b068fc378daa952ba7f163c4a11628f55a4df523b3ef",
            "0x000000000000000000000000f65b7f3048533fd21046637d49202262bd1c447e",
            "0x0000000000000000000000008103b0a8a00be2ddc778e6e7eaa21791cd364625"
          ],
          "data": "0x00000000000000000000000000000000000000000000000029a2241af62c0000",
          "blockHash": "0x31c9a87d7a5d3406b97771d885c5d81c34be482033c1b1ad603a5f12199143d3",
          "blockNumber": "0x4b4aa8",
          "transactionHash": "0x5ebd88f9624e4af22dac7529553673966a4a4c7b45b41366daf2f9a7585d3c78",
          "transactionIndex": "0xf",
          "logIndex": "0x1a",
          "removed": false
        },
        {
          "address": "0x779877A7B0D9E8603169DdbD7836e478b4624789",
          "topics": [
            "0xe19260aff97b920c7df27010903aeb9c8d2be5d310a2c67824cf3f15396e4c16",
            "0x000000000000000000000000f65b7f3048533fd21046637d49202262bd1c447e",
            "0x0000000000000000000000008103b0a8a00be2ddc778e6e7eaa21791cd364625"
          ],
          "data": "0x00000000000000000000000000000000000000000000000029a2241af62c0000000000000000000000000000000000000000000000000000000000000000004000000000000000000000000000000000000000000000000000000000000000200000000000000000000000000000000000000000000000000000000000001f36",
          "blockHash": "0x31c9a87d7a5d3406b97771d885c5d81c34be482033c1b1ad603a5f12199143d3",
          "blockNumber": "0x4b4aa8",
          "transactionHash": "0x5ebd88f9624e4af22dac7529553673966a4a4c7b45b41366daf2f9a7585d3c78",
          "transactionIndex": "0xf",
          "logIndex": "0x1b",
          "removed": false
        },
        {
          "address": "0x8103B0A8A00be2DDC778e6e7eaa21791Cd364625",
          "topics": [
            "0xd39ec07f4e209f627a4c427971473820dc129761ba28de8906bd56f57101d4f8",
            "0x0000000000000000000000000000000000000000000000000000000000001f36"
          ],
          "data": "0x00000000000000000000000000000000000000000000000029a2241af62c000000000000000000000000000000000000000000000000000053444835ec580000",
          "blockHash": "0x31c9a87d7a5d3406b97771d885c5d81c34be482033c1b1ad603a5f12199143d3",
          "blockNumber": "0x4b4aa8",
          "transactionHash": "0x5ebd88f9624e4af22dac7529553673966a4a4c7b45b41366daf2f9a7585d3c78",
          "transactionIndex": "0xf",
          "logIndex": "0x1c",
          "removed": false
        }
      ],
      "status": "0x1",
      "logsBloom": "0x0000001400008000000000000000000000000000000000020000000002000000000000000000900000400000000000000000000000000000000000000000000000000000000000000000000800000000000000000000000000002000000000000000000000000000000000000000000000010000400000000000001000000000000000000c001020000000000000800010000020000000000000000000000000000000000000000000000000000000000000000000000000000400000000000000000002000000000000080000000000000000000000000100000000000000000000000000000000000000000000000000000000000000000000000000000000",
      "type": "0x2",
      "effectiveGasPrice": "0xfe46a6f9"
    }
  ],
  "libraries": [],
  "pending": [],
  "returns": {},
  "timestamp": 1703219161,
  "chain": 11155111,
  "multi": false,
  "commit": "e1e3f89"
}