{
  "transactions": [
    {
      "hash": "0x5ebd88f9624e4af22dac7529553673966a4a4c7b45b41366daf2f9a7585d3c78",
      "transactionType": "CALL",
      "contractName": "LinkToken",
      "contractAddress": "0x779877A7B0D9E8603169DdbD7836e478b4624789",
      "function": "transferAndCall(address,uint256,bytes)",
      "arguments": [
        "0x8103B0A8A00be2DDC778e6e7eaa21791Cd364625",
        "3000000000000000000",
        "0x0000000000000000000000000000000000000000000000000000000000001f36"
      ],
      "transaction": {
        "type": "0x02",
        "from": "0xf65b7f3048533fd21046637d49202262bd1c447e",
        "to": "0x779877a7b0d9e8603169ddbd7836e478b4624789",
        "gas": "0x13fbe",
        "value": "0x0",
        "data": "0x4000aea00000000000000000000000008103b0a8a00be2ddc778e6e7eaa21791cd36462500000000000000000000000000000000000000000000000029a2241af62c0000000000000000000000000000000000000000000000000000000000000000006000000000000000000000000000000000000000000000000000000000000000200000000000000000000000000000000000000000000000000000000000001f36",
        "nonce": "0x2c",
        "accessList": []
      },
      "additionalContracts": [],
      "isFixedGasLimit": false
    }
  ],
  "receipts": [],
  "libraries": [],
  "pending": [
    "0x5ebd88f9624e4af22dac7529553673966a4a4c7b45b41366daf2f9a7585d3c78"
  ],
  "returns": {},
  "timestamp": 1703219149,
  "chain": 11155111,
  "multi": false,
  "commit": "e1e3f89"
}